:100000000C9434000C9451000C9451000C94510049
:100010000C9451000C9451000C9451000C9451001C
:100020000C9451000C9451000C9451000C9451000C
:100030000C9451000C9451000C948A030C945100C0
:100040000C9451000C9451000C9431030C94510009
:100050000C9451000C9451000C9451000C945100DC
:100060000C9451000C94510011241FBECFEFD8E026
:10007000DEBFCDBF11E0A0E0B1E0E0E4FEE002C0F1
:1000800005900D92AE33B107D9F725E0AEE3B1E0AC
:1000900001C01D92AB3CB207E1F70E94F6030C943D
:1000A0001E070C94000087E6E8E4F5E0DF011D92EE
:1000B0008A95E9F708958F929F92AF92BF92CF925F
:1000C000DF92EF92FF92CF93DF936B017C018091DF
:1000D000420590914305892BA9F5C2E4D1E0812C1A
:1000E000912C5401D501C401E8E0F0E00EC0B695B2
:1000F000A7959795879560E2862763E8962768EB32
:10010000A6276DEEB627319741F080FDF0CFB6956A
:10011000A795979587953197C1F789939993A99357
:10012000B9938FEF881A980AA80AB80A8114E1E0F7
:100130009E06A104B104B1F681E090E090934305DE
:1001400080934205C094D094E094F094240F351F1E
:1001500042175307D8F48D2C9E2CAF2CBB24FA01E8
:100160008191AF0190E08C25880F991F880F991F0E
:10017000FC01EE5BFE4FC080D180E280F380C8249A
:10018000D924EA24FB242417350729F7C701B6012F
:100190006095709580959095DF91CF91FF90EF904D
:1001A000DF90CF90BF90AF909F908F9008958F3F3A
:1001B0002FEF920711F0019608958FEF9FEF0895AA
:1001C00090ED980F9A3040F09FEB980F963010F01A
:1001D0008FEF089587530895892F08950F931F93E4
:1001E000CF93DF9300D0CDB7DEB78FE49BE49A8343
:1001F00089838E010F5F1F4FF80101900020E9F7FE
:1002000031979F01201B310BA80160E070E0CB010A
:100210000E945B009F938F937F936F931F930F9325
:100220008CE191E09F938F930E9440040FB6F89465
:10023000DEBF0FBECDBF0F900F90DF91CF911F910A
:100240000F9108958091A9059091AA058D3011F024
:1002500081E00895209149052A3311F082E0089544
:100260009927FC01E85BFA4F20812A3011F083E0E6
:1002700008950197181619063CF420E02F5F422FCD
:1002800050E048175907D4F385E291E00E94EE0050
:1002900080E008958A3369F12091A9053091AA057B
:1002A000232B71F48091AB059091AC058F3F2FEF1C
:1002B000920709F001969093AC058093AB050895E1
:1002C0002091A9053091AA052032310558F72091D7
:1002D000A9053091AA05A9014F5F5F4F5093AA0568
:1002E0004093A905F901E85BFA4F81838A30F1F068
:1002F00008958091A9059091AA05892B69F08091B4
:10030000AB059091AC058F3F2FEF920709F0019656
:100310009093AC058093AB058AE38093490581E017
:1003200090E09093AA058093A90508950E94220168
:10033000811105C01092AA051092A90508951F9277
:100340008F9388E291E09F938F930E944004809165
:10035000AB059091AC050F900F900F900F908F3FD1
:100360002FEF920709F001969093AC058093AB05AF
:10037000E1CF8091C5059091C6050E9402048F3F90
:100380002FEF920711F00C944A0108952091AB05CC
:100390003091AC05809140019091410128173907B7
:1003A000C9F08091AB059091AC0590934101809389
:1003B000400188EE93E090933F0180933E0181E0FD
:1003C0000E94260385E391E09F938F930E9440044F
:1003D0000F900F9080913E0190913F01009739F06E
:1003E000019790933F0180933E01892B09F0089576
:1003F00080E00C94260308950895089508950895C3
:10040000089508952091C5053091C605281739072C
:10041000C1F49091B3058091B205981791F0E091E5
:10042000B20581E08E0F8093B205F0E0E155FA4FFE
:1004300086819091B205903110F01092B20590E053
:1004400008958EEF9FEF08952091C7053091C8055C
:100450002617370751F49091C00095FFFCCF809389
:10046000C600082E000C990B08958EEF9FEF08959B
:1004700086E1EFEAF5E0DF011D928A95E9F7BFEF2B
:1004800022E587E0B15020408040E1F700C0000045
:1004900087EC87BD82E084BD85BD80936E0085BBFF
:1004A00092E29093C4001092C5008093C00086E051
:1004B0008093C20088E98093C10080E284B915B8B6
:1004C000E5ECF5E08EE091E09383828380E091E0BB
:1004D00091838083089508958F3F11F08F5F089571
:1004E0008FEF08958F3F2FEF920711F00196089537
:1004F0008FEF9FEF08958091AF0587FF089578945F
:1005000008958FB7EFEAF5E090818078892B80839A
:10051000F89408958BE391E09F938F930E94400499
:100520000F900F9008959091B3058091B2059817A0
:1005300038F48091B3059091B205805F891B0895CE
:100540008091B3059091B205891B0895CF93C82F70
:100550008FB79091AF058078892B8093AF05F89481
:100560000E949302C81798F4E091B205EC0FE031B5
:1005700060F4F0E0E155FA4F868190E02091AF05FC
:1005800027FF01C07894CF910895E051F2CF8FEF0B
:100590009FEFF4CF8FB79091AF058078892B809330
:1005A000AF05F8948091C00087FF08C08091C60015
:1005B0008093B5058091C00087FDF8CF1092B205F9
:1005C0001092B3051092B4058091AF0587FF08958E
:1005D000789408952FB73091AF052078232B20937E
:1005E000AF05F8942091B105282331E009F430E0FB
:1005F0009091B105982B9093B1058091AF0587FF3D
:1006000001C07894832F0895982F8FB72091AF055C
:100610008078822B8093AF05F8942091B10529232F
:1006200081E009F480E02091B105909592239093A8
:10063000B1059091AF0597FF089578940895909132
:10064000B105982381E009F480E00895811102C08A
:100650002D9808952D9A089595B180E2892785B93E
:1006600008951F920F920FB60F9211248F939F93AC
:10067000EF93FF938091C600823539F1809347054F
:10068000E091B30591E09E0F9093B305F0E0E15542
:10069000FA4F86838091B305803110F01092B30534
:1006A0009091B3058091B2059817F9F0E091B305E8
:1006B000F0E0E155FA4F1682FF91EF919F918F91F3
:1006C0000F900FBE0F901F90189590914705903492
:1006D000A9F698E088E10FB6F894A8958093600099
:1006E0000FBE90936000A895FFCF8091B305811154
:1006F0000BC08FE08093B3058091B4058F3F09F064
:100700008F5F8093B405D2CF8091B30581508093E1
:10071000B305F2CF1F920F920FB60F9211242F93B1
:100720003F934F935F936F937F938F939F93AF9379
:10073000BF93EF93FF93809146058F5F8530E0F183
:1007400010924605809145058F5F80934505809105
:1007500044058823C1F08091B0058F3F09F08F5F79
:100760008093B005FF91EF91BF91AF919F918F91D1
:100770007F916F915F914F913F912F910F900FBE9D
:100780000F901F90189581E0809344057894809194
:10079000450580FD19C081FD12C082FD1BC083FD8F
:1007A0001CC084FD1DC085FD12C086FD1CC087FFD6
:1007B00008C00E94010205C080934605D3CF0E9465
:1007C000FB0110924405CECF0E94C601FACF0E94D1
:1007D000FF01F7CF0E94FC01F4CF0E94FD01F1CF91
:1007E0000E94FE01EECF0E940002EBCF0E94380271
:1007F0000E9453000E948A0278940E946B020E9419
:10080000B901FBCFCF93DF93EC012B8120FF33C0E5
:1008100026FF0AC02F7B2B838E819F8101969F83A9
:100820008E838A8190E029C022FF0FC0E881F98180
:100830008081082E000C990B009719F420622B83FD
:100840001AC03196F983E8830EC0EA85FB850995C5
:1008500097FF09C02B81019611F080E201C080E171
:10086000822B8B8308C02E813F812F5F3F4F3F83B8
:100870002E83992702C08FEF9FEFDF91CF910895CC
:10088000A0E0B0E0E6E4F4E00C94F706AE014B5FC4
:100890005F4FFA0161917191AF018091C70590910D
:1008A000C8050E945604E2E00C941307ABE0B0E0E8
:1008B000ECE5F4E00C94E7066C017B018A01FC0195
:1008C00017821682838181FFCCC1CE0101963C0143
:1008D000F6019381F70193FD859193FF81917F014B
:1008E000882309F4BAC1853239F493FD859193FFC9
:1008F00081917F01853229F4B60190E00E944D0676
:10090000E7CF912C212C312CFFE1F315D8F08B325D
:1009100079F038F4803279F08332A1F4232D20610C
:100920001DC08D3261F0803369F4232D216016C023
:10093000832D8260382EE32DE4603E2E2AC0F32DF5
:10094000F8601DC037FC2DC020ED280F2A3040F084
:100950008E32B9F436FC81C1232D2064322E19C0A9
:1009600036FE06C08AE0989E200D1124922E11C0FA
:10097000EAE02E9E200D1124222EF32DF0623F2E50
:1009800008C08C3621F4832D8068382E02C088364A
:1009900041F4F70193FD859193FF81917F018111CE
:1009A000B3CF982F9F7D9554933028F40C5F1F4F41
:1009B0009FE399830DC0833631F0833771F083351F
:1009C00009F059C021C0F801808189830E5F1F4F53
:1009D00088248394912C530113C02801F2E04F0E18
:1009E000511CF801A080B18036FE03C0692D70E073
:1009F00002C06FEF7FEFC5010E9442064C018201E9
:100A0000F32DFF773F2E16C0280122E0420E511C25
:100A1000F801A080B18036FE03C0692D70E002C0ED
:100A20006FEF7FEFC5010E9437064C01F32DF06890
:100A30003F2E820133FC1BC0822D90E08816990660
:100A4000B0F4B60180E290E00E944D062A94F4CF03
:100A5000F50137FC859137FE81915F01B60190E089
:100A60000E944D0621102A9421E0821A91088114D7
:100A7000910471F7E8C0843611F0893641F5F80128
:100A800037FE07C060817181828193810C5F1F4FA7
:100A900008C060817181072E000C880B990B0E5FD6
:100AA0001F4FF32DFF763F2E97FF09C0909580953D
:100AB000709561957F4F8F4F9F4FF0683F2E2AE0D2
:100AC00030E0A3010E948906882E861845C085372C
:100AD00031F4232D2F7EB22E2AE030E025C0932D55
:100AE000997FB92E8F36C1F018F4883579F0B5C0EA
:100AF000803719F0883721F0B0C0E92FE061BE2EB1
:100B0000B4FE0DC0FB2DF460BF2E09C034FE0AC038
:100B1000292F2660B22E06C028E030E005C020E173
:100B200030E002C020E132E0F801B7FE07C060818A
:100B30007181828193810C5F1F4F06C0608171813A
:100B400080E090E00E5F1F4FA3010E948906882E6F
:100B50008618FB2DFF773F2E36FE0DC0232D2E7FEE
:100B6000A22E891458F434FE0BC032FC09C0832D28
:100B70008E7EA82E05C0B82CA32C03C0B82C01C0B3
:100B8000B92CA4FE0FC0FE01E80DF11D8081803359
:100B900021F49A2D997EA92E09C0A2FE06C0B39415
:100BA000B39404C08A2D867809F0B394A3FC11C0D5
:100BB000A0FE06C0B21488F4280C922C9B180EC01C
:100BC000B21460F4B60180E290E00E944D06B39446
:100BD000F7CFB21418F42B1802C0982C212CA4FEC5
:100BE00010C0B60180E390E00E944D06A2FE17C03F
:100BF000A1FC03C088E790E002C088E590E0B60160
:100C00000CC08A2D867859F0A1FE02C08BE201C08B
:100C100080E2A7FC8DE2B60190E00E944D068914A7
:100C200038F4B60180E390E00E944D069A94F7CF25
:100C30008A94F301E80DF11D8081B60190E00E94D5
:100C40004D068110F5CF222009F442CEB60180E294
:100C500090E00E944D062A94F6CFF6018681978196
:100C600002C08FEF9FEF2B96E2E10C940307FC018B
:100C70000590615070400110D8F7809590958E0FC7
:100C80009F1F0895FC016150704001900110D8F73A
:100C9000809590958E0F9F1F08950F931F93CF936C
:100CA000DF93FB01238121FD03C08FEF9FEF2CC059
:100CB00022FF16C046815781248135814217530790
:100CC00044F4A081B1819D012F5F3F4F3183208388
:100CD0008C93268137812F5F3F4F3783268314C043
:100CE0008B01EC01FB010084F185E02D0995892B36
:100CF000E1F6D80116968D919C911797019617965B
:100D00009C938E931697CE01DF91CF911F910F91F7
:100D10000895FA01AA27283051F1203181F1E89491
:100D20006F936E7F6E5F7F4F8F4F9F4FAF4FB1E0DE
:100D30003ED0B4E03CD0670F781F891F9A1FA11DD9
:100D4000680F791F8A1F911DA11D6A0F711D811DDA
:100D5000911DA11D20D009F468943F912AE0269F9F
:100D600011243019305D3193DEF6CF010895462FFE
:100D70004770405D4193B3E00FD0C9F7F6CF462FDF
:100D80004F70405D4A3318F0495D31FD4052419348
:100D900002D0A9F7EACFB4E0A69597958795779505
:100DA0006795BA95C9F700976105710508959B018C
:100DB000AC010A2E06945795479537952795BA9515
:100DC000C9F7620F731F841F951FA01D08952F92EE
:100DD0003F924F925F926F927F928F929F92AF92CB
:100DE000BF92CF92DF92EF92FF920F931F93CF9318
:100DF000DF93CDB7DEB7CA1BDB0B0FB6F894DEBFAF
:100E00000FBECDBF09942A88398848885F846E84D4
:100E10007D848C849B84AA84B984C884DF80EE801E
:100E2000FD800C811B81AA81B981CE0FD11D0FB627
:100E3000F894DEBF0FBECDBFED010895F894FFCF4B
:100E4000000000010000000000000202000000009D
:100E50000002000000002402000000003A25732375
:100E6000256C580A004F4B004665686C65723A2045
:0E0E700025750D0A004572726F72000A0D00A2
:00000001FF
