:100000000C9434000C9451000C9451000C94510049
:100010000C9451000C9451000C9451000C9451001C
:100020000C9451000C9451000C9451000C9451000C
:100030000C9451000C9451000C94DA020C94510071
:100040000C9451000C9451000C9481020C945100BA
:100050000C9451000C9451000C9451000C945100DC
:100060000C9451000C94510011241FBECFEFD8E026
:10007000DEBFCDBF11E0A0E0B1E0E4E7FDE002C0EB
:1000800005900D92A239B107D9F721E0A2E9B1E0BC
:1000900001C01D92AD3DB207E1F70E9446030C94EA
:1000A000B8060C94000087E2EAE9F1E0DF011D9256
:1000B0008A95E9F708958F3F2FEF920711F0019687
:1000C00008958FEF9FEF08958BE991E09F938F93B1
:1000D0008CE491E09F938F930E94AA038091BB01CF
:1000E0009091BC010F900F900F900F90893030F0DD
:1000F00020919B012A3321F082E0089581E0089548
:100100009927FC01E656FE4F20812A3011F083E04A
:1001100008950197823091053CF021E02F5F422F36
:1001200050E048175907D4F383E691E00E94C003DA
:1001300080E008958A3369F12091BB013091BC01C0
:10014000232B71F48091BD019091BE018F3F2FEF61
:10015000920709F001969093BE018093BD01089526
:100160002091BB013091BC012032310558F720911C
:10017000BB013091BC01A9014F5F5F4F5093BC019F
:100180004093BB01F901E656FE4F81838A30F1F0BE
:1001900008958091BB019091BC01892B69F08091F9
:1001A000BD019091BE018F3F2FEF920709F001969C
:1001B0009093BE018093BD018AE380939B0181E00F
:1001C00090E09093BC018093BB0108950E9464006D
:1001D000811105C01092BC011092BB0108951F92BD
:1001E0008F9384E791E09F938F930E94AA0380915D
:1001F000BD019091BE010F900F900F900F908F3F17
:100200002FEF920709F001969093BE018093BD01F4
:10021000E1CF8091D7019091D8010E946C038F3F6C
:100220002FEF920711F00C949A0008952091BD01D0
:100230003091BE0180919401909195012817390762
:10024000C9F08091BD019091BE019093950180937A
:10025000940188EE93E0909393018093920181E062
:100260000E94760281E891E09F938F930E94AA03F7
:100270000F900F908091920190919301009739F027
:1002800001979093930180939201892B09F008952F
:1002900080E00C94760208950895089508950895D5
:1002A000089508952091D7013091D8012817390772
:1002B000C1F49091C5018091C401981791F0E0912B
:1002C000C40181E08E0F8093C401F0E0EF53FE4F34
:1002D00086819091C401903110F01092C40190E099
:1002E00008958EEF9FEF08952091D9013091DA01A2
:1002F0002617370751F49091C00095FFFCCF8093EB
:10030000C600082E000C990B08958EEF9FEF0895FC
:1003100086E1E1ECF1E0DF011D928A95E9F7BFEF9C
:1003200022E587E0B15020408040E1F700C00000A6
:1003300087EC87BD82E084BD85BD80936E0085BB60
:1003400092E29093C4001092C5008093C00086E0B2
:100350008093C20088E98093C10080E284B915B817
:10036000E7EDF1E08EE091E09383828380E091E01D
:1003700091838083089508958F3F11F08F5F0895D2
:100380008FEF08958F3F2FEF920711F00196089598
:100390008FEF9FEF08958091C10187FF08957894B2
:1003A00008958FB7E1ECF1E090818078892B80830C
:1003B000F89408958FE891E09F938F930E94AA0389
:1003C0000F900F9008959091C5018091C4019817E6
:1003D00038F48091C5019091C401805F891B089514
:1003E0008091C5019091C401891B0895CF93C82FB6
:1003F0008FB79091C1018078892B8093C101F894C7
:100400000E94E301C81798F4E091C401EC0FE031B9
:1004100060F4F0E0EF53FE4F868190E02091C1013F
:1004200027FF01C07894CF910895E051F2CF8FEF6C
:100430009FEFF4CF8FB79091C1018078892B809383
:10044000C101F8948091C00087FF08C08091C60068
:100450008093C7018091C00087FDF8CF1092C4013E
:100460001092C5011092C6018091C10187FF0895C5
:10047000789408952FB73091C1012078232B2093D1
:10048000C101F8942091C301282331E009F430E040
:100490009091C301982B9093C3018091C10187FF74
:1004A00001C07894832F0895982F8FB72091C101B0
:1004B0008078822B8093C101F8942091C301292375
:1004C00081E009F480E02091C301909592239093FC
:1004D000C3019091C10197FF089578940895909178
:1004E000C301982381E009F480E00895811102C0DE
:1004F0002D9808952D9A089595B180E2892785B9A0
:1005000008951F920F920FB60F9211248F939F930D
:10051000EF93FF938091C600823539F18093990162
:10052000E091C50191E09E0F9093C501F0E0EF537B
:10053000FE4F86838091C501803110F01092C50175
:100540009091C5018091C4019817F9F0E091C5011F
:10055000F0E0EF53FE4F1682FF91EF919F918F9144
:100560000F900FBE0F901F901895909199019034A5
:10057000A9F698E088E10FB6F894A89580936000FA
:100580000FBE90936000A895FFCF8091C5018111A7
:100590000BC08FE08093C5018091C6018F3F09F0A9
:1005A0008F5F8093C601D2CF8091C5018150809327
:1005B000C501F2CF1F920F920FB60F9211242F9305
:1005C0003F934F935F936F937F938F939F93AF93DB
:1005D000BF93EF93FF93809198018F5F8530E0F197
:1005E00010929801809197018F5F8093970180917D
:1005F00096018823C1F08091C2018F3F09F08F5F7F
:100600008093C201FF91EF91BF91AF919F918F9124
:100610007F916F915F914F913F912F910F900FBEFE
:100620000F901F90189581E08093960178948091A7
:10063000970180FD19C081FD12C082FD1BC083FDA2
:100640001CC084FD1DC085FD12C086FD1CC087FF37
:1006500008C00E94510105C080939801D3CF0E9429
:100660004B0110929601CECF0E941601FACF0E9444
:100670004F01F7CF0E944C01F4CF0E944D01F1CF02
:100680000E944E01EECF0E945001EBCF0E948801E4
:100690000E9453008CE191E09F938F9385E291E05B
:1006A0009F938F9381E391E09F938F9387E891E0ED
:1006B0009F938F930E94AA030E94DA0178948DB7CA
:1006C0009EB708960FB6F8949EBF0FBE8DBF0E94CE
:1006D000BB010E940901FBCFCF93DF93EC012B817B
:1006E00020FF33C026FF0AC02F7B2B838E819F8182
:1006F00001969F838E838A8190E029C022FF0FC0DC
:10070000E881F9818081082E000C990B009719F47B
:1007100020622B831AC03196F983E8830EC0EA85E4
:10072000FB85099597FF09C02B81019611F080E2A6
:1007300001C080E1822B8B8308C02E813F812F5F17
:100740003F4F3F832E83992702C08FEF9FEFDF91AA
:10075000CF910895A0E0B0E0E0EBF3E00C949106B7
:10076000AE014B5F5F4FFA0161917191AF018091D2
:10077000D9019091DA010E94F003E2E00C94AD06F9
:100780000F931F93CF93DF93E091D901F091DA019A
:10079000238121FF1BC08C01D0E0C0E0F8018191D2
:1007A0008F016091D9017091DA01DB011896ED910A
:1007B000FC911997882331F00995892B79F3DFEFA4
:1007C000CFEFECCF8AE00995892B19F08FEF9FEFDF
:1007D00002C08D2F9C2FDF91CF911F910F91089513
:1007E000ABE0B0E0E6EFF3E00C9481066C017B0136
:1007F0008A01FC0117821682838181FFCCC1CE0160
:1008000001963C01F6019381F70193FD859193FFD9
:1008100081917F01882309F4BAC1853239F493FDAF
:10082000859193FF81917F01853229F4B60190E093
:100830000E94E705E7CF912C212C312CFFE1F31525
:10084000D8F08B3279F038F4803279F08332A1F429
:10085000232D20611DC08D3261F0803369F4232D7A
:10086000216016C0832D8260382EE32DE4603E2E79
:100870002AC0F32DF8601DC037FC2DC020ED280FD5
:100880002A3040F08E32B9F436FC81C1232D206429
:10089000322E19C036FE06C08AE0989E200D112423
:1008A000922E11C0EAE02E9E200D1124222EF32D4F
:1008B000F0623F2E08C08C3621F4832D8068382EDC
:1008C00002C0883641F4F70193FD859193FF819131
:1008D0007F018111B3CF982F9F7D9554933028F4D9
:1008E0000C5F1F4F9FE399830DC0833631F0833730
:1008F00071F0833509F059C021C0F80180818983E6
:100900000E5F1F4F88248394912C530113C028013C
:10091000F2E04F0E511CF801A080B18036FE03C0FA
:10092000692D70E002C06FEF7FEFC5010E94DC050A
:100930004C018201F32DFF773F2E16C0280122E0E3
:10094000420E511CF801A080B18036FE03C0692D13
:1009500070E002C06FEF7FEFC5010E94D1054C012E
:10096000F32DF0683F2E820133FC1BC0822D90E0F6
:1009700088169906B0F4B60180E290E00E94E7057F
:100980002A94F4CFF50137FC859137FE81915F0100
:10099000B60190E00E94E70521102A9421E0821A16
:1009A00091088114910471F7E8C0843611F08936FA
:1009B00041F5F80137FE07C0608171818281938122
:1009C0000C5F1F4F08C060817181072E000C880BDF
:1009D000990B0E5F1F4FF32DFF763F2E97FF09C037
:1009E00090958095709561957F4F8F4F9F4FF068E0
:1009F0003F2E2AE030E0A3010E942306882E8618AD
:100A000045C0853731F4232D2F7EB22E2AE030E009
:100A100025C0932D997FB92E8F36C1F018F48835F3
:100A200079F0B5C0803719F0883721F0B0C0E92FD0
:100A3000E061BE2EB4FE0DC0FB2DF460BF2E09C0D8
:100A400034FE0AC0292F2660B22E06C028E030E00E
:100A500005C020E130E002C020E132E0F801B7FE3D
:100A600007C060817181828193810C5F1F4F06C036
:100A70006081718180E090E00E5F1F4FA3010E94B2
:100A80002306882E8618FB2DFF773F2E36FE0DC0DD
:100A9000232D2E7FA22E891458F434FE0BC032FC75
:100AA00009C0832D8E7EA82E05C0B82CA32C03C0B0
:100AB000B82C01C0B92CA4FE0FC0FE01E80DF11D39
:100AC0008081803321F49A2D997EA92E09C0A2FE3F
:100AD00006C0B394B39404C08A2D867809F0B39409
:100AE000A3FC11C0A0FE06C0B21488F4280C922CFE
:100AF0009B180EC0B21460F4B60180E290E00E9430
:100B0000E705B394F7CFB21418F42B1802C0982C51
:100B1000212CA4FE10C0B60180E390E00E94E705FE
:100B2000A2FE17C0A1FC03C088E790E002C088E5E0
:100B300090E0B6010CC08A2D867859F0A1FE02C063
:100B40008BE201C080E2A7FC8DE2B60190E00E943A
:100B5000E705891438F4B60180E390E00E94E705C8
:100B60009A94F7CF8A94F301E80DF11D8081B601C4
:100B700090E00E94E7058110F5CF222009F442CED3
:100B8000B60180E290E00E94E7052A94F6CFF601D4
:100B90008681978102C08FEF9FEF2B96E2E10C9444
:100BA0009D06FC010590615070400110D8F78095BA
:100BB00090958E0F9F1F0895FC0161507040019029
:100BC0000110D8F7809590958E0F9F1F08950F9371
:100BD0001F93CF93DF93FB01238121FD03C08FEF90
:100BE0009FEF2CC022FF16C046815781248135819A
:100BF0004217530744F4A081B1819D012F5F3F4FFD
:100C0000318320838C93268137812F5F3F4F378339
:100C1000268314C08B01EC01FB010084F185E02DDB
:100C20000995892BE1F6D80116968D919C9117971D
:100C3000019617969C938E931697CE01DF91CF91D4
:100C40001F910F910895FA01AA27283051F1203100
:100C500081F1E8946F936E7F6E5F7F4F8F4F9F4F50
:100C6000AF4FB1E03ED0B4E03CD0670F781F891F92
:100C70009A1FA11D680F791F8A1F911DA11D6A0F60
:100C8000711D811D911DA11D20D009F468943F9113
:100C90002AE0269F11243019305D3193DEF6CF0112
:100CA0000895462F4770405D4193B3E00FD0C9F7D8
:100CB000F6CF462F4F70405D4A3318F0495D31FD45
:100CC0004052419302D0A9F7EACFB4E0A695979598
:100CD000879577956795BA95C9F70097610571056E
:100CE00008959B01AC010A2E0694579547953795B8
:100CF0002795BA95C9F7620F731F841F951FA01D12
:100D000008952F923F924F925F926F927F928F92AF
:100D10009F92AF92BF92CF92DF92EF92FF920F938A
:100D20001F93CF93DF93CDB7DEB7CA1BDB0B0FB694
:100D3000F894DEBF0FBECDBF09942A883988488851
:100D40005F846E847D848C849B84AA84B984C884E7
:100D5000DF80EE80FD800C811B81AA81B981CE0FDE
:100D6000D11D0FB6F894DEBF0FBECDBFED010895C3
:040D7000F894FFCF25
:100D7400000000010000000000005201000000001B
:100D840000020000000074010000000032323A3416
:100D9400363A3039005365702033302032303139DF
:100DA400000A0D526573687566666C656420536548
:100DB4007269616C20546573746572007265636551
:100DC40069766564206120726571756573743A2073
:100DD4002573007265717565737420636865636B50
:100DE400206F6B004665686C65723A2025750D0AA4
:100DF400004572726F720025732025732025730AD3
:020E04000D00DF
:00000001FF
